:020000040800F2
:10000000E0280020B10400088502000887020008EB
:100010008B0200088F020008930200080000000015
:10002000000000000000000000000000970200082F
:1000300099020008000000009B0200089D020008D1
:10004000CB040008CB040008CB040008CB04000854
:10005000CB040008CB040008CB040008CB04000844
:10006000CB040008CB040008CB040008CB04000834
:10007000CB040008CB040008CB040008CB04000824
:10008000CB040008CB040008CB040008CB04000814
:10009000CB040008CB040008CB040008CB04000804
:1000A000CB040008CB040008CB040008CB040008F4
:1000B000CB04000849240008CB040008CB04000846
:1000C000CB040008CB040008CB040008CB040008D4
:1000D000CB0400080D2D0008CB040008CB04000859
:1000E000CB040008CB040008CB040008CB040008B4
:1000F000CB040008CB040008CB040008CB040008A4
:10010000CB040008CB040008CB040008CB04000893
:10011000CB040008CB040008CB040008CB04000883
:10012000CB040008CB040008CB040008CB04000873
:10013000CB040008CB040008CB040008CB04000863
:10014000CB040008CB040008CB040008CB04000853
:1001500023620008CB040008CB040008CB0400088D
:10016000CB040008CB040008CB040008CB04000833
:10017000CB040008CB040008CB040008CB04000823
:10018000CB040008CB040008DFF80CD006F032FAEC
:1001900000480047B5010008E028002042F2107135
:1001A00005E001E04A1E91B20029FBD1401E002863
:1001B000F7D1704742F21070FFF7F0FF02F0D2F86B
:1001C00042F21070FFF7EAFF092141F61F4002F0EA
:1001D0000FF902F0EFFD04F08EFE02F0EBF84FF4A1
:1001E000165002F032FD42F21070FFF7D7FF02F016
:1001F00048FC10231BA20021084602F01BFB102321
:100200001CA20221002002F015FB102319A20221DA
:10021000202002F00FFB102316A20221402002F042
:1002200009FB102314A20221602002F003FB00202E
:100230000FE0124B33F810301912104B13F8102046
:100240000F4B03F81010012303EB40030C4CE25456
:10025000401CB0F5FA7FECDB012006F039F800BF56
:10026000FEE7000044312020443220204433202087
:10027000443400004F4646004F4E0000EE1200206E
:1002800074180020704700BFFEE700BFFEE700BF04
:10029000FEE700BFFEE770477047704770470000F9
:1002A0000CB50020019000907648006840F4803042
:1002B0007449086000BF7348006800F40030009083
:1002C0000198401C0190009818B90198B0F5A04F12
:1002D000F1D16C48006800F4003010B101200090AA
:1002E00001E0002000900098012846D16548403088
:1002F000006840F0805063494031086062480068FF
:1003000040F44040604908605E48083000685D493C
:10031000083108600846006840F40040086008465C
:10032000006840F4A05008605848091F0860081F82
:10033000006840F08070091F086000BF51480068E5
:1003400000F000700028F9D040F2057050490860B4
:100350004C480830006820F003004A490831086022
:100360000846006840F00200086000BF45480830B9
:10037000006800F00C000828F8D10CBD10B5454805
:10038000006840F47000434908603E48006840F04F
:1003900001003C49086000203A49083108603948AA
:1003A00000683D490840374908603C48091D08601D
:1003B000081F006820F48020091F086000203149D0
:1003C0000C310860FFF76CFF4FF000603149803955
:1003D000086010BD70B50020002202230024022115
:1003E000284D08352D6805F00C0020B1042806D0F2
:1003F000082834D107E02A4D2A4E356033E02A4DD3
:10040000284E35602FE01F4D2D1D2D68C5F38054FB
:100410001C4D2D1D2D6805F03F0154B1224DB5FB3B
:10042000F1F5184E361D3668C6F3881605FB06F240
:1004300009E01B4DB5FBF1F5124E361D3668C6F3CB
:10044000881605FB06F20F4D2D1D2D68C5F30145DD
:100450006D1C6B00B2FBF3F5124E356003E0104DDE
:10046000104E356000BF00BF064D08352D68C5F33E
:1004700003150E4E705D0B4D2D68C540094E35605D
:1004800070BD000000380240007000400854400772
:10049000003C024088ED00E0FFFFF6FE1030002433
:1004A0000024F4000000002000127A000400002064
:1004B0000648804706480047FEE7FEE7FEE7FEE7FE
:1004C000FEE7FEE7FEE7FEE7FEE7FEE77D03000846
:1004D0008901000832490143324A1160704770B502
:1004E000002100230F22C4781CB32E4C246804F48E
:1004F000E064C4F5E064C4F30721C1F10404E3B28D
:100500000A4144789C40E1B28478144021430C07AE
:10051000210E254C05786155047804F01F0501244F
:10052000AC4005786D11AD0005F1E025C5F800413E
:1005300009E0047804F01F050124AC401B4D067847
:10054000761145F8264070BD194A0A400243154B02
:100550001B1F1A60704739B1124A121D12680243FC
:10056000104B1B1D1A6006E00E4A121D12688243D2
:100570000C4B1B1D1A607047042808D14FF0E02176
:10058000096941F004014FF0E022116107E04FF0EA
:10059000E021096921F004014FF0E0221161704768
:1005A0000000FA050CED00E000E400E080E100E06E
:1005B00080FFFF1F016821F001010160002101603F
:1005C00041608160C160016121214161DB49884254
:1005D00004D13D21D94A103A91608CE0D7491831B5
:1005E000884205D14FF47461D44A103A916082E098
:1005F000D2493031884205D14FF47411CF4A103AB4
:10060000916078E0CD494831884205D14FF074615E
:10061000CA4A103A91606EE0C8496031884204D1FC
:10062000C749C64A103AD16065E0C449783188426A
:1006300004D1C449C14A103AD1605CE0BF4990314D
:10064000884204D1C049BD4A103AD16053E0BB4949
:10065000A831884205D14FF03D51B84A103AD160D7
:1006600049E0BA49884204D13D21B84A083A1160AC
:1006700041E0B6491831884205D14FF47461B34A5C
:10068000083A116037E0B1493031884205D14FF462
:100690007411AE4A083A11602DE0AC4948318842E5
:1006A00005D14FF07461A94A083A116023E0A749C7
:1006B0006031884204D1A249A44A121F11601AE095
:1006C000A2497831884204D19E49A04A121F116084
:1006D00011E09E499031884204D19B499B4A121FE8
:1006E000116008E09949A831884204D14FF03D518A
:1006F000964A121F1160704710B500220268944B91
:100700001A40CC680B6823434C6923438C6923430C
:10071000CC6923430C6A23434C6A23438C6A2343EA
:100720004C6B23438C6B23431A430260426922F0D3
:100730000702D1E90B3423431A4342610B6943603A
:100740004B6883608B68C36010BD0021016041600D
:100750008160C160016141618161C1610162416289
:100760008162C162016341638163704721B10268A4
:1007700042F00102026003E0026822F0010202601E
:10078000704721B1026842F40042026003E002684F
:1007900022F400420260704721B1026842F0200258
:1007A000026003E0026822F02002026070474160AC
:1007B00070470146486880B2704722B1036843F42D
:1007C0000023036003E0036823F400230360016156
:1007D000704721B1026842F48022026003E002689F
:1007E00022F48022026070470AB1016100E0C1601A
:1007F0007047014600200A6802F400220AB1012075
:1008000000E000207047014600200A6802F0010263
:100810000AB1012000E000207047014600204A692B
:1008200002F03800704730B503460A460020002425
:10083000464DAB4202D24149103901E043491039DB
:1008400002F000550DB14C6800E00C68414D2C40A1
:1008500004EA02050DB1012000E0002030BD02468F
:100860003A4B9A4202D23548103801E037481038E6
:1008700001F000531BB1374B0B40C36002E0354B16
:100880000B408360704710B501F080034BB122B17B
:10089000436943F08003436103E0436923F080032D
:1008A000436180290BD02AB1036801F01E04234361
:1008B000036004E0036801F01E04A343036010BD5D
:1008C00070B50246002000240025204EB24202D21C
:1008D0001A4B103B01E01D4B103B1F4E0E4036B132
:1008E0001E2606EAD124166806EA040502E05669C7
:1008F00006F0800501F000560EB15C6800E01C684F
:10090000144E344004EA010616B10DB1012000E096
:10091000002070BD02460D4B9A4202D207481038A3
:1009200001E00A48103801F000531BB1094B0B409D
:10093000C36002E0074B0B408360704710600240C9
:100940003D000020400F002000003D2010640240C8
:100950003F801CF07D0F7D0F3C0F3C0F10B504460F
:100960009848844208D10121084600F086FB002106
:10097000012000F082FB76E09348844208D10121F7
:10098000022000F07AFB0021022000F076FB6AE0F2
:100990008E48844208D10121042000F06EFB002122
:1009A000042000F06AFB5EE08948844208D10121FE
:1009B000082000F062FB0021082000F05EFB52E0FE
:1009C0008448844208D10121102000F056FB002108
:1009D000102000F052FB46E07F48844208D10121FC
:1009E000202000F04AFB0021202000F046FB3AE0E6
:1009F0007A48844208D10121402000F03EFB0021CA
:100A0000402000F03AFB2EE07548844208D10121D5
:100A1000802000F032FB0021802000F02EFB22E03D
:100A20007048844208D10121801500F026FB002186
:100A3000A01500F022FB16E06B48844208D101218A
:100A4000401500F01AFB0021601500F016FB0AE0CB
:100A50006648844207D10121001500F00EFB0021F9
:100A6000201500F00AFB10BDF0B50A460021002356
:100A7000002400BF3DE0012505FA01F3156805EAF1
:100A800003049C4234D105684F000326BE40B543A1
:100A9000056015794E00B540066835430560157947
:100AA000012D02D01579022D16D185684F0003263D
:100AB000BE40B543856055794E00B54086683543E4
:100AC0008560456801268E40B54345604568967946
:100AD0008E40B6B235434560C5684F000326BE4020
:100AE000B543C560D5794E00B540C6683543C5608D
:100AF000491C1029BFD3F0BD4FF6FF7101600021E2
:100B0000017141718171C171704708B54FF4803234
:100B10000092009A0A430092009AC261C161009A51
:100B2000C261C2690092C269009208BD02460020FB
:100B300013690B400BB1012000E000207047014613
:100B4000086980B270470246002053690B400BB120
:100B5000012000E0002070470146486980B27047DC
:100B600001837047418370470AB1018300E04183EC
:100B700070474161704742694A4042617047F0B531
:100B8000002300244D07ED0E02FA05F3CE1000F10C
:100B9000200555F826504E07F70E0F26BE40B543E8
:100BA000CF1000F1200646F82750CE1000F12005A6
:100BB00055F8265045EA0304CE1000F1200545F80B
:100BC0002640F0BD00000240000402400008024040
:100BD000000C0240001002400014024000180240C5
:100BE000001C024000200240002402400028024075
:100BF000F948006840F00100F74908600020F64914
:100C000008310860F4480068F4490840F249086077
:100C1000F348091D0860F348EF4984310860F04843
:100C20001038091D0860EC48006820F48020EA496B
:100C300008600020E8490C310860E7498C31086001
:100C400070470021E44A921C1170114608707047E9
:100C500010B501460022002300204A11012A02D1CA
:100C6000DD4C236808E0022A03D1DB4C7034236892
:100C700002E0D94C7434236801F01F02012494402F
:100C80001C400CB1012000E0002010BD38B5002050
:100C900000900024002500BF3120FFF7D9FF054652
:100CA0000098401C00900098B0F5A04F01D0002D96
:100CB000F2D03120FFF7CCFF08B1012400E000247E
:100CC000204638BD01460020C34A106820F0F800D5
:100CD00040EAC10010607047C349086070470021B6
:100CE000BD4A703211701170012802D004280AD157
:100CF00004E00121B84A7032117005E00521B64ABE
:100D00007032117000E000BF00BF7047B749086043
:100D1000704770B5049C41EA82150126C6EB530664
:100D200045EA0645054345EA0465AB4E361D356088
:100D300070BDAD4908667047820142EA0172A64B58
:100D400084331A607047A8498866704710B58301DC
:100D500043EA016343EA02739F4C8834236010BD69
:100D6000A14908677047A049C8647047024600203F
:100D7000994B0833186820F0EC6042EA01031843ED
:100D8000954B08331860704702460020924B083399
:100D9000186820F0784042EA010318438E4B08336C
:100DA00018607047014600208B4A0832106820F016
:100DB000030008431060704787480830006800F05F
:100DC0000C00704701460020834A0832106820F06A
:100DD000F000084310607047014600207E4A083248
:100DE000106820F4E050084310607047014600206E
:100DF000794A0832106820F4604040EAC10010606F
:100E00007047F0B5002100220024022500260223AD
:100E1000714F08373F6807F00C0121B1042905D054
:100E2000082937D105E0724F076036E0714F07603F
:100E300033E0694F3F1D3F68C7F38056664F3F1D43
:100E40003F6807F03F036EB16A4FB7FBF3F7DFF877
:100E500088C10CF1040CDCF800C0CCF3881C07FB43
:100E60000CF40CE0624FB7FBF3F7DFF86CC10CF148
:100E7000040CDCF800C0CCF3881C07FB0CF4564FC4
:100E80003F1D3F68C7F301477F1C7D00B4FBF5F7AA
:100E9000076002E0564F076000BF00BF4E4F0837A3
:100EA0003F6807F0F0010909534F7A5C0768D740A3
:100EB0004760494F08373F6807F4E051890A4E4FB1
:100EC0007A5C4768D7408760434F08373F6807F42C
:100ED0006041490B484F7A5C4768D740C760F0BD16
:100EE000002100F44072B2F5407F0AD13A4A08323C
:100EF000116821F4F811414A02401143364A083280
:100F00001160354A70321268C0F30B031A43324B3A
:100F100070331A6070473549443908607047334967
:100F20004039086070473649086070470146002024
:100F3000294A8C32106820F01F004A1E1043264AAE
:100F40008C321060704701460020234A8C321068B2
:100F500020F4F8504A1E40EA02201F4A8C321060EA
:100F60007047014600201C4A8C32106820F4401063
:100F700008431060704701460020174A8C32106801
:100F800020F4400008431060704701460020124AD8
:100F90008C32106820F440300843106070471949C3
:100FA0000860704739B10C4A3032126802430A4B6C
:100FB00030331A6006E0084A303212688243064B2A
:100FC00030331A607047F9B1034A34321268024371
:100FD000014B34331A601CE000380240FFFFF6EA90
:100FE000103000240030002000004742800E4742AD
:100FF0000024F40000127A0014000020FFFCFF0F10
:101000005C014742E01147428F4A126882438E4B8F
:101010001A60704739B18C4A121D126802438A4B1C
:101020001B1D1A6006E0884A121D12688243864B17
:101030001B1D1A60704739B1834A0C321268024393
:10104000814B0C331A6006E07F4A0C3212688243EF
:101050007D4B0C331A60704739B17B4A10321268ED
:101060000243794B10331A6006E0774A1032126857
:101070008243754B10331A60704739B1724A243A73
:1010800012680243704B243B1A6006E06E4A243A11
:10109000126882436C4B243B1A60704739B16A4A2C
:1010A000203A12680243684B203B1A6006E0664A09
:1010B000203A12688243644B203B1A60704739B172
:1010C000614A1C3A126802435F4B1C3B1A6006E0FF
:1010D0005D4A1C3A126882435B4B1C3B1A607047A6
:1010E00039B1594A143A12680243574B143B1A60FB
:1010F00006E0554A143A12688243534B143B1A6077
:10110000704739B1504A103A126802434E4B103BB7
:101110001A6006E04C4A103A126882434A4B103B70
:101120001A60704739B1484A1C3212680243464B74
:101130001C331A6006E0444A1C3212688243424B58
:101140001C331A60704739B13F4A2032126802439B
:101150003D4B20331A6006E03B4A2032126882433E
:10116000394B20331A60704739B1374A243212683C
:101170000243354B24331A6006E0334A24321268A6
:101180008243314B24331A60704739B12E4A2C32D6
:10119000126802432C4B2C331A6006E02A4A2C3288
:1011A00012688243284B2C331A60704739B1264AA3
:1011B000303212680243244B30331A6006E0224A70
:1011C000303212688243204B30331A607047012856
:1011D00008D11D493C31096841F008011A4A3C32E6
:1011E000116007E018493C31096821F00801164AEE
:1011F0003C321160704739B1134A273A12780243E2
:10120000114B273B1A7006E00F4A273A12788243A7
:101210000D4B273B1A7070470B484030006840F078
:101220008070094940310860704701460020064A35
:10123000283A12680A400AB1012000E000207047F5
:1012400001492639087070473438024010B5044609
:10125000FE48844208D101210846FFF752FF0021D1
:101260000120FFF74EFF9DE0B4F1804F08D101212E
:101270000846FFF735FF00210120FFF731FF91E01D
:10128000F348844208D101210220FFF729FF002101
:101290000220FFF725FF85E0EE48844208D10121B6
:1012A0000420FFF71DFF00210420FFF719FF79E05C
:1012B000E948844208D101210820FFF711FF0021ED
:1012C0000820FFF70DFF6DE0E448844208D10121BA
:1012D0001020FFF705FF00211020FFF701FF61E05C
:1012E000DF48844208D101212020FFF7F9FE0021C8
:1012F0002020FFF7F5FE55E0DA48844208D10121AD
:101300000220FFF7FEFE00210220FFF7FAFE49E06F
:10131000D548844209D101210804FFF7F2FE0021DB
:101320004FF48030FFF7EDFE3CE0D048844209D115
:1013300001214804FFF7E5FE00214FF40030FFF7DC
:10134000E0FE2FE0CA48844209D101218804FFF75A
:10135000D8FE00214FF48020FFF7D3FE22E0C548DD
:10136000844208D101214020FFF7BAFE002140202D
:10137000FFF7B6FE16E0C048844208D10121802064
:10138000FFF7AEFE00218020FFF7AAFE0AE0BB486F
:10139000844207D101218015FFF7A2FE0021A0158C
:1013A000FFF79EFE10BD00220288A84B98420ED087
:1013B000AC4B98420BD0B0F1804F08D0A44B984270
:1013C00005D0A44B984202D0A34B984204D14FF6CB
:1013D0008F731A404B881A43A04B984207D0A04BFA
:1013E000984204D04FF6FF431A400B891A430280FB
:1013F0004B68C3620B880385944B984202D0994B8B
:10140000984201D18B7A03860123838270474FF083
:10141000FF3141600021018001814180817270476C
:101420000185828270470A46002101884FF68F733A
:10143000194011430180704741627047C162704793
:101440000146486A70470146088D704721B10288FD
:1014500042F00202028004E002884FF6FD731A4057
:101460000280704721B1028842F00402028004E049
:1014700002884FF6FB731A400280704721B1028840
:1014800042F08002028004E002884FF67F731A4027
:101490000280704702884FF6F7731A400280028874
:1014A0000A430280704702884FF6FF431A400280C9
:1014B00002880A430280704721B1028842F001028B
:1014C000028004E002884FF6FE731A4002807047E3
:1014D00070B5002400220023058C4FF6FE763540BF
:1014E0000584028C8388048B4FF68F752C40B51EC3
:1014F0002C400D882C43751E2A408D892A434D8827
:101500002A43524DA84202D0564DA84213D14FF65D
:10151000F7752A40CD892A434FF6FB752A408D88FE
:101520002A434FF6FF652B404FF6FF552B400D8A9F
:101530002B434D8A2B43838004838D68456302844B
:1015400070BD70B5002400220023058C4FF6EF76A5
:1015500035400584028C8388048B48F6FF752C4047
:101560004FF6FF452C400D884FF6FF7606EA05251D
:101570002C434FF6DF752A408D8906EA05152A436C
:101580004D8806EA05152A43304DA84202D0354D54
:10159000A8421DD14FF67F752A40CD894FF6FF76C0
:1015A00006EA05152A434FF6BF752A408D8806EADC
:1015B00005152A434FF6FF352B404FF2FF752B40A0
:1015C0000D8A06EA85052B434D8A06EA85052B43DD
:1015D000838004838D688563028470BD70B50024A8
:1015E00000220023058C4FF6FF6635400584028CEF
:1015F0008388848B4FF68F752C404FF6FC752C40FA
:101600000D882C434FF6FF552A408D894FF6FF7603
:1016100006EA05252A434D8806EA05252A430B4D8F
:10162000A84202D00F4DA84238D14FF2FF752A4090
:10163000CD894FF6FF7606EA05252A434FF6FF359A
:101640002A408D8806EA05252A4319E0000001405A
:101650000004004000080040000C00400010004062
:1016600000140040000401400040014000440140DB
:101670000048014000180040001C004000200040CD
:101680004EF6FF752B404DF6FF752B400D8A06EA8E
:1016900005152B434D8A06EA05152B438380848369
:1016A0008D68C563028470BD70B5002200230024DC
:1016B000058C4EF6FF7635400584038C8488828B3A
:1016C00048F6FF752A404FF6FF452A400D884FF631
:1016D000FF7606EA05252A434DF6FF752B408D89D6
:1016E00006EA05352B434D8806EA05352B43FE4DAA
:1016F000A84202D0FD4DA84208D14BF6FF752C4000
:101700000D8A4FF6FF7606EA85152C438480828386
:101710008D680564038470BD002101804180818053
:1017200081608181C18101824182704770B5034629
:10173000002000241846183001258D40ACB21D8CC5
:10174000A5431D8409B108290AD100EB6100056891
:101750004FF68F76354005600568154305600FE04C
:101760000D1FC5F34E052844056848F6FF76354041
:10177000056005684FF6FF7606EA022635430560E8
:1017800070BD4163704781637047C16370470164F6
:1017900070470A460021018B4FF68F7319401143A1
:1017A000018370470A460021018B48F6FF731940F8
:1017B0004FF6FF7303EA02231943018370470A4679
:1017C0000021818B4FF68F7319401143818370473D
:1017D0000A460021818B48F6FF7319404FF6FF73CC
:1017E00003EA02231943818370470A460021018BD3
:1017F0004FF6F77319401143018370470A460021E1
:10180000018B4FF2FF7319404FF6FF7303EA022377
:101810001943018370470A460021818B4FF6F77305
:1018200019401143818370470A460021818B4FF292
:10183000FF7319404FF6FF7303EA022319438183B4
:1018400070470A460021018B4FF6FB731940114384
:10185000018370470A460021018B4FF6FF33194080
:101860004FF6FF7303EA02231943018370470A46C8
:101870000021818B4FF6FB73194011438183704720
:101880000A460021818B4FF6FF3319404FF6FF7354
:1018900003EA02231943818370470A460021018B22
:1018A0004FF67F7319401143018370470A460021A8
:1018B000018BC1F30E014FF6FF7303EA02231943B4
:1018C000018370470A460021818B4FF67F731940D0
:1018D0001143818370470A460021818BC1F30E01B9
:1018E0004FF6FF7303EA02231943818370470A46C8
:1018F0000021018C4FF6FD7319401143018470479C
:101900000A460021018C4FF6F773194011430184F8
:1019100070470A460021018C4FF6DF7319404FF6DD
:10192000FF7303EA02131943018470470A4600213A
:10193000018C4FF67F7319404FF6FF7303EA0213D1
:101940001943018470470A460021018C4FF6FF536A
:1019500019404FF6FF7303EA0223194301847047CD
:101960000A460021018C4FF2FF7319404FF6FF73B6
:1019700003EA02231943018470470A460021018CBF
:101980004DF6FF7319404FF6FF7303EA0233194314
:101990000184704730B5002301248C40A3B2048C2D
:1019A0009C430484048C02FA01F5ADB22C430484F8
:1019B00030BD30B5002304248C40A3B2048C9C437A
:1019C0000484048C02FA01F5ADB22C43048430BDCA
:1019D000828B4FF2FF331A408283828B4FF6FF7364
:1019E00003EA01231A4382837047F0B50C4615467B
:1019F000002100220026078C4EF6FF7C07EA0C0728
:101A00000784818B028C4FF6FF7707EA043640F695
:101A1000FF4739404FF6FF7707EA052739434FF66E
:101A2000FF7707EA0337394345F6FF773A4046F434
:101A300080573A4381830284F0BD828B4FF6F37363
:101A40001A408283828B0A4382837047F0B50C462A
:101A50001546002100220026078C4FF6FF6C07EA8E
:101A60000C070784818B028C4FF6FF7707EA042668
:101A70004FF60C7739404FF6FF7707EA03172F43ED
:101A800039434FF2FF573A4046F480773A43818317
:101A90000284F0BD028B4FF2FF331A400283028BA7
:101AA0004FF6FF7303EA01231A4302837047F0B530
:101AB0000C461546002100220026078C4FF6EF7CCD
:101AC00007EA0C070784018B028C4FF6FF7707EAC1
:101AD000041640F6FF4739404FF6FF7707EA033711
:101AE00039434FF6FF7703E0000001400004014056
:101AF00007EA052739434FF65F773A4046F010076B
:101B00003A4301830284F0BD028B4FF6F3731A400F
:101B10000283028B0A4302837047F0B50C461546D8
:101B200000210022068C4FF6FE773E400684018B92
:101B3000028C4FF60C7631407E1C06EA03162E43CB
:101B400031434FF6F576324044F0010632430183CB
:101B50000284F0BD70B505460C46208850B9238933
:101B6000A28861882846FFF7D8FFE1882846FFF75A
:101B7000CBFF25E0208804280AD12389A288618828
:101B80002846FFF794FFE1882846FFF783FF17E018
:101B9000208808280AD12389A28861882846FFF76F
:101BA00055FFE1882846FFF748FF09E02389A2880E
:101BB00061882846FFF719FFE1882846FFF708FFEC
:101BC00070BD002101804180012181800021C18000
:101BD000018170472DE9F04105460C46002601279A
:101BE000608808B9022600E00026A088012801D1FB
:101BF000022700E001272088A0B92389A2886188F4
:101C00002846FFF78AFFE1882846FFF77DFF2389F2
:101C10003A4631462846FFF74AFFE1882846FFF753
:101C200039FF13E02389A28861882846FFF73FFF28
:101C3000E1882846FFF72EFF23893A463146284699
:101C4000FFF76BFFE1882846FFF75EFFBDE8F081F4
:101C50000146486B70470146886B70470146C86B68
:101C600070470146086C70470A884B881A438B8876
:101C70001A43CB881A430B891A434B891A438B8921
:101C80001A43A0F8442070470021018041808180E0
:101C9000C180018141818181704731B1B0F8442018
:101CA00042F40042A0F8442005E0B0F84420C2F31A
:101CB0000E02A0F84420704721B1828842F004024D
:101CC000828004E082884FF6FB731A40828070475E
:101CD00021B1828842F00102828004E082884FF6BE
:101CE000FE731A40828070471AB183890B43838147
:101CF00002E083898B43838170478182704702466B
:101D00000020138A0B400BB1012000E00020704737
:101D1000CA430282704730B50246002000230024E7
:101D2000158A05EA0103958905EA010413B10CB18E
:101D3000012000E0002030BDCA430282704741EA22
:101D40000203A0F8483070471AB183890B4383819E
:101D500002E083898B438381704721B1828842F0FE
:101D60000802828004E082884FF6F7731A4082806E
:101D7000704701894FF6F8721140018170470A4699
:101D8000002101894FF68F7319401143018170477B
:101D900030B504460D4629462046FFF7F0FF20895E
:101DA00040F00700208130BD2DE9F04104460D468A
:101DB00016461F46602D06D13B460122314620467D
:101DC000FFF775FE05E03B46012231462046FFF74E
:101DD000A4FE29462046FFF7D2FF208940F00700E5
:101DE0002081BDE8F08130B50C4600210189C9B2DF
:101DF0004FF6FF7505EA0325154325432943018165
:101E000030BD2DE9F04105460E46174698460024A0
:101E100043463A4631462846FFF7E5FF2C894FF600
:101E2000F870044044F007044FF68F70044044F00B
:101E300070042C81BDE8F081F0B504460D461646CD
:101E40001F463B46324629462046FFF7CCFF2089F5
:101E500040F480402081F0BD82884FF68F731A4095
:101E6000828082880A438280704702894FF6F87325
:101E70001A40028102890A430281704702894FF6A3
:101E80007F731A40028102890A4302817047F0B5CC
:101E90000C4615461E460021002200230189028BB4
:101EA000038C4FF6F877394021434FF6FC473A4010
:101EB00040F201173A434FF6DD773B404FF6FF778C
:101EC00007EA06172F433B43018102830384F0BDD9
:101ED00021B1828842F08002828004E082884FF63D
:101EE0007F731A4082807047A0F85010704700003E
:101EF00010B50446FA48844208D101211020FFF7AA
:101F000000F900211020FFF7FCF857E0F548844263
:101F100009D101214804FFF7E3F800214FF4003014
:101F2000FFF7DEF84AE0F048844209D10121880435
:101F3000FFF7D6F800214FF48020FFF7D1F83DE0FD
:101F4000EA48844209D10121C804FFF7C9F80021F9
:101F50004FF40020FFF7C4F830E0E548844209D18F
:101F600001210805FFF7BCF800214FF48010FFF7AE
:101F7000B7F823E0DF48844208D101212020FFF791
:101F8000C0F800212020FFF7BCF817E0DA488442AF
:101F900009D101218807FFF7A3F800214FF0804005
:101FA000FFF79EF80AE0D548844207D10121400599
:101FB000FFF796F800216005FFF792F810BD2DE9B4
:101FC000FF4705460E460024A14600BFA046B08943
:101FD00000B100BF2C8A24F44054F08804432C82C2
:101FE000AC8941F20C608443B0883189084371891F
:101FF00008430443AC81AC8A24F44074B0890443A0
:10200000AC826846FEF7FDFEB548854202D0B9486D
:10201000854202D1DDF80C9001E0DDF80890A88936
:1020200000F4004040B109EBC90000EB0910316831
:102030004900B0FBF1F707E009EBC90000EB09101C
:1020400031688900B0FBF1F76420B7FBF0F00401C0
:102050002009642101FB1078A88900F4004040B1F8
:10206000322000EBC800B0FBF1F000F007000443A1
:1020700008E0322000EB08106421B0FBF1F000F022
:102080000F0004432C81BDE8FF874FF41651016017
:1020900000218180C18001810C2141810021818149
:1020A000704710B502460020108A20F470600B883B
:1020B0004C8823438C882343CC88234318431082C5
:1020C00010BD0021018041808180C180704721B115
:1020D000828942F40052828104E082894DF6FF73C6
:1020E0001A4082817047028B02F47F420283028B86
:1020F0000A430283704721B1828942F400428281FF
:1021000003E08289C2F30E028281704721B1828A84
:1021100042F40062828204E0828A4FF2FF731A4026
:1021200082827047C1F30802828070470146888826
:10213000C0F308007047028A4FF6F0731A4002821B
:10214000028A0A430282704721B1828942F0020268
:10215000828104E082894FF6FD731A4082817047C4
:1021600082894FF2FF731A40828182890A438281F9
:102170007047028A4FF6DF731A400282028A0A43CE
:102180000282704721B1028A42F48042028204E056
:10219000028A4BF6FF731A4002827047818941F030
:1021A00001018181704721B1828A42F00802828256
:1021B00004E0828A4FF6F7731A4082827047028BDE
:1021C000D2B20283028B42EA01220283704721B11C
:1021D000828A42F02002828204E0828A4FF6DF7314
:1021E0001A408282704721B1828A42F010028282B4
:1021F00004E0828A4FF6EF731A4082827047828A27
:102200004FF6FB731A408282828A0A4382827047A9
:1022100021B1828A42F00202828204E0828A4FF671
:10222000FD731A40828270471AB1838A0B438382FE
:1022300002E0838A8B4383827047F0B50346002413
:1022400000260025002040F66A17B94200D100BFE1
:102250001846C1F3421401F01F06012707FA06F5DC
:10226000012C01D10C3004E0022C01D1103000E02F
:1022700014301AB107682F43076002E00768AF43C4
:102280000760F0BD02460020B1F5007F00D100BF1D
:1022900013880B400BB1012000E00020704701F4CF
:1022A0000072B2F5007F00D100BFCA4302807047C0
:1022B00070B50246002400230025002040F66A166F
:1022C000B14200D100BFC1F3421501F01F03012646
:1022D00006FA03F3012D13D19689334017E000006D
:1022E000001001400044004000480040004C004005
:1022F000005000400014014000780040007C004085
:10230000022D02D1168A334001E0968A33400C1226
:10231000012606FA04F41688344013B10CB10120EA
:1023200000E0002070BD10B50022002340F66A14C2
:10233000A14200D100BF0A1201249440A3B2DC43A1
:10234000048010BD10B5002807DA0A07140E564A9B
:1023500000F00F031B1FD45403E00A07130E534A67
:10236000135410BD10B501210720FEF71BFE504885
:1023700000686421B0FBF1F4601EB0F1807F01D3EE
:1023800001200FE0601E4FF0E02148610F214FF067
:10239000FF30FFF7D7FF00204FF0E02188610720D2
:1023A0000861002008B100BFFEE70021481EFFF7CA
:1023B000C9FF10BD1CB501210420FEF7F3FD4FF449
:1023C0000070009001208DF8040000208DF80600B8
:1023D00003208DF8050001208DF807006946354877
:1023E000FEF742FB4FF400713248FEF7B9FB1CBD0B
:1023F0007FB505460C4601210220FEF71CFE029522
:10240000ADF804400020ADF80600ADF80C0001A9BD
:102410002948FEF7C8FF012211462748FFF764FC50
:1024200001212548FFF748F81D208DF80000012004
:102430008DF8010003208DF8020001208DF80300C3
:102440006846FEF74CF87FBD10B501211A48FFF72A
:1024500062FC012827D101211748FFF76DFC1748BE
:1024600000F06DFD16480088401C1549088015488D
:102470000088401C13490880114800880A2805DBA1
:10248000114802F09DFF00200D4908800D4800888A
:10249000B0F57A7F07DB4FF400710648FEF76BFB5F
:1024A00000200849088010BD18ED00E000E400E0BD
:1024B0000000002000080240000400402C1600200C
:1024C00024000020260000200C23002070B50446C4
:1024D0000E4626B11021F948FEF742FB03E0102119
:1024E000F648FEF73FFB0821F448FEF73BFB0025CA
:1024F0001BE04FF40071F148FEF734FB04F080005C
:1025000028B14FF48071ED48FEF72AFB04E04FF448
:102510008071EA48FEF726FB4FF40071E748FEF7AA
:102520001FFB6006040E681CC5B2082DE1DB082104
:10253000E248FEF715FB1021E048FEF711FB70BDE5
:1025400070B504460E4626B11021DC48FEF708FBA4
:1025500003E01021D948FEF705FB0821D748FEF714
:1025600001FB00251BE04FF40071D448FEF7FAFA96
:1025700004F0800028B14FF48071D048FEF7F2FAE1
:1025800004E04FF48071CD48FEF7EAFA4FF4007191
:10259000CA48FEF7E5FA6006040E681CC5B2082DAD
:1025A000E1DB0821C548FEF7DBFA1021C348FEF73E
:1025B000D7FA70BD70B504460D4605F1B001C8B23A
:1025C0000021FFF783FF102141EA14100021FFF7DB
:1025D0007DFF04F00F0141F001000021FFF776FFBD
:1025E00070BD10B500218D20FFF770FF0021142071
:1025F000FFF76CFF0021AF20FFF768FF10BD10B59B
:1026000000218D20FFF762FF00211020FFF75EFF01
:102610000021AE20FFF75AFF10BD70B5002419E06D
:1026200004F1B001C8B20021FFF750FF00210846B5
:10263000FFF74CFF00211020FFF748FF002505E0C1
:1026400001210020FFF742FF681CC5B2802DF7DB97
:10265000601CC4B2082CE3DB70BD2DE9F0410746D5
:102660000E46904600250024A8F12000C5B27F2F19
:1026700002DD0027B01CC6B231463846FFF79AFF8C
:10268000002408E004EB05118D4A505C0121FFF79E
:102690001DFF601CC4B2082CF4DB701CC1B23846AC
:1026A000FFF788FF002409E004EB05110831844A94
:1026B000505C0121FFF70AFF601CC4B2082CF3DB59
:1026C000BDE8F0812DE9F04107460E469046002511
:1026D0000024A8F12000C5B27F2F02DD0027B01C26
:1026E000C6B231463846FFF765FF002408E004EB28
:1026F0000511734A505C0121FFF722FF601CC4B230
:10270000082CF4DB701CC1B23846FFF753FF0024DD
:1027100009E004EB05110831694A505C0121FFF71B
:102720000FFF601CC4B2082CF3DBBDE8F081F0B5EC
:1027300014460026832801DC3F2900DDF0BD0B464E
:10274000CF1701EB5777FF10C7F10707FAB2CF1782
:1027500001EB5777FF10A1EBC707FDB2C5F10707E3
:102760000123BB40DEB25CB1564B03EB001333F8E0
:1027700012303343534F07EB001727F812300AE0AB
:10278000504B03EB001333F81230B3434D4F07EBBC
:10279000001727F8123000BFD0E710B5024601201D
:1027A00000E050430B1EA1F10104E1B2F9D110BDCC
:1027B0002DE9FF5F074691461D460E9E4FF0000A29
:1027C000002433E0281B401EC1B20A20FFF7E5FFBA
:1027D000B9FBF0F00A21B0FBF1F201FB1208BAF1EB
:1027E000000F13D1681EA04210DDB8F1000F0BD10D
:1027F000B34606EBDB71491001FB0471C8B220221D
:102800000199FFF72AFF0FE04FF0010AB34606EBEC
:10281000DB71491001FB0471C8B208F13001CAB282
:102820000199FFF71AFF00BF601CC4B2AC42C9DBBC
:10283000BDE8FF9F2DE9F04106460F461446984635
:10284000002517E0B8F1000F05D0625D394630462B
:10285000FFF703FF04E0625D39463046FFF732FFC1
:1028600006F10800C6B2782E02DD0026B81CC7B2F9
:10287000681CC5B2605D0028E4D1BDE8F0812DE997
:10288000F04F80460C4615461E46A346A5F1200093
:10289000C5B2002749E00C2E07D105EB45000A49D7
:1028A00001EB800010F8079004E0084800EB0510E9
:1028B00010F807904FF0000A31E0000000040240D9
:1028C00098740008681A00200C680008806C0008E2
:1028D00009F0800028B121464046099AFFF727FFFA
:1028E00009E0099808B9012000E0002002462146CD
:1028F0004046FFF71CFF4FEA49604FEA1069601C31
:10290000C4B2A4EB0B00B04205D15C4608F1010053
:1029100000F0FF0806E00AF1010000F0FF0ABAF13A
:10292000080FD5DB00BF781CC7B2B742B3DBBDE8E8
:10293000F08FF8B505460E46144618E07E2D03DDEF
:10294000002506F11000C6B23A2E04DD002005462F
:102950000646FFF762FE01200090227810233146E0
:102960002846FFF78CFF05F10800C5B2641C2078EB
:102970000028E3D1F8BD2DE9F04781460F46154602
:102980001E464FF0000839464846FFF713FE002464
:1029900015E03EB1A44A02EB8511085D0121FFF765
:1029A00095FD06E0A04A02EB8511085D0121FFF7C5
:1029B000C7FD08F1010000F0FF08601CC4B2102C34
:1029C000E7DB781CC1B24846FFF7F4FD002419E0AC
:1029D0004EB16900491C944A02EB4111085D012186
:1029E000FFF774FD08E06900491C8F4A02EB4111B2
:1029F000085D0121FFF7A4FD08F1010000F0FF08C8
:102A0000601CC4B2102CE3DBBDE8F0872DE9F05F59
:102A100006460F4690461C46DDF828A04FF0000BF6
:102A2000E11704EB5171C910A4EBC10131B9204683
:102A3000E11704EB5171C1F3C70506E02046E11729
:102A400004EB5171C910491CCDB23D4615E0294631
:102A50003046FFF7AFFDB1460BE059460BF1010BD5
:102A60001AF801000121FFF731FD09F1010000F022
:102A7000FF09C145F1DB681CC5B2A542E7DBBDE833
:102A8000F09F7CB5002501210220FEF78BFA4FF460
:102A90004070009001208DF8040000208DF80600A1
:102AA00001208DF8070002208DF8050069465F4877
:102AB000FDF7DAFF01210220FEF774FA38200090BA
:102AC00001208DF8040000208DF8060001208DF80B
:102AD000070002208DF8050069465448FDF7C4FF41
:102AE00038215248FEF73CF820215048FEF738F8CC
:102AF00006E06D1C002401E000BF641CC82CFBDB59
:102B000040F6B8308542F4DB002520214748FEF727
:102B100029F806E06D1C002401E000BF641CC82CED
:102B2000FBDB40F6B8308542F4DB20213F48FEF75E
:102B300017F80021AE20FFF7C9FC00210846FFF777
:102B4000C5FC00211020FFF7C1FC00214020FFF749
:102B5000BDFC00218120FFF7B9FC0021CF20FFF749
:102B6000B5FC0021A120FFF7B1FC0021C820FFF730
:102B7000ADFC0021A620FFF7A9FC0021A820FFF74B
:102B8000A5FC00213F20FFF7A1FC0021D320FFF787
:102B90009DFC00210846FFF799FC0021D520FFF796
:102BA00095FC00218020FFF791FC0021D920FFF740
:102BB0008DFC0021F120FFF789FC0021DA20FFF7CE
:102BC00085FC00211220FFF781FC0021DB20FFF7AC
:102BD0007DFC00214020FFF779FC00212020FFF739
:102BE00075FC00210220FFF771FC00218D20FFF70A
:102BF0006DFC00211420FFF769FC0021A420FFF7E1
:102C000065FC0021A620FFF761FC0021AF20FFF743
:102C10005DFC0021AF20FFF759FCFFF7FEFC00210F
:102C20000846FFF7C7FC7CBD2800002000040240D6
:102C300000BF704700BF584A128802F04002002AC5
:102C4000F9D0C2B2544B9A80704710B588B0044690
:102C500001210220FEF7A6F901211020FEF7FCF960
:102C6000072206214D48FDF78AFF072211464B48EF
:102C7000FDF785FFC020069002208DF81C008DF81E
:102C80001D0000208DF81E0001208DF81F0006A9F0
:102C90004248FDF7E9FE02940020ADF80C004FF425
:102CA0000050ADF80E000020ADF81000ADF8140093
:102CB0000C20ADF8120002A93748FFF780F9012275
:102CC00040F224413448FFF7B8FA25208DF804007B
:102CD00001208DF805008DF806008DF8070001A889
:102CE000FDF7FDFB012240212B48FFF79DFA6420F0
:102CF0002B4B294A121D510600902A4803F0F8F97F
:102D000001212548FFF7E3F908B010BD70B540F286
:102D100024412148FFF7CCFA00283BD01E48008808
:102D2000214908701C48808808701E48FDF741FD45
:102D3000C0F164001D49087008460078A0B1184829
:102D40004078302805DA08460178154803F063FB1F
:102D50000AE002F064FF02F0ACFF044602F08CFFD0
:102D60000546214603F09AF900210E48FDF7FEFCC6
:102D70000F490C48FDF773FD00BF0A48FDF743FDFE
:102D80000028FAD164210748FDF711FD012105480B
:102D9000FDF7ECFC70BD0000001001400004024093
:102DA000A822002088640240EC120020ED120020CE
:102DB000400F00201CB52020009000208DF804005A
:102DC0006946F748FDF750FE0220009000208DF87C
:102DD00004006946F348FDF747FE022000900020FA
:102DE0008DF804006946EE48FDF73EFE4FF40060A2
:102DF000009000208DF804006946EA48FDF734FE93
:102E00001CBD70B505460024002600BF22E0D5F8A1
:102E10000120C4EBC40303EB43031A44B2F80920B6
:102E200091B2D5F80120C4EBC40303EB43031A4469
:102E3000D2F80500FDF77AFE50B9D5F80100C4EBD1
:102E4000C40101EB4101415C01208840304386B25E
:102E5000601CC4B2D4480078A042D8DC304670BDB3
:102E600070B5054600240026D0480078401CCF49A4
:102E70000870084600781E2804DB00200870012036
:102E8000CB490870CA480078012856D10020C849AB
:102E900008702846FFF7B5FF0446C648007830B1F1
:102EA00001280BD0022819D0032845D13CE024B1D9
:102EB000C14804800120BF4908703DE0BE48008839
:102EC000844207D10220BB490870BB48008840F407
:102ED000805602E00020B74908702DE0B64800880F
:102EE00084420AD00020B3490870B4490880B2482F
:102EF000008840F40056304670BDAF4800888442D8
:102F000011D1AE480088401CAC49088008460088B2
:102F1000212808DB002008800320A649087044F41B
:102F200000463046E8E707E0A3480088844202D024
:102F30000020A049087000BF00BF0020DCE770B58A
:102F40000546002400262846FFF78AFF064606B9F4
:102F500070BD06F4005028B3002420E0D5F801002D
:102F6000C4EBC40101EB4101415C012088403040C9
:102F700098B1D5F80100C4EBC40101EB410108444C
:102F8000D0F80D0048B1D5F80110C4EBC40202EB33
:102F900042021144D1F80D008047601CC4B2287869
:102FA000A042DBDC06F4004028B3002420E0D5F882
:102FB0000100C4EBC40101EB4101415C01208840E8
:102FC000304098B1D5F80100C4EBC40101EB4101D8
:102FD0000844D0F8110048B1D5F80110C4EBC40280
:102FE00002EB42021144D1F811008047601CC4B2C8
:102FF0002878A042DBDC00BFAAE72DE9F04387B0C8
:1030000007460C4615461E46DDE90E89CDF80540FB
:10301000CDF80950CDF80D6069480078401C40B2E9
:1030200067490870C0B28DF80400CDF81590CDF84E
:10303000118064480078401C62490870152201A97B
:10304000384603F09DFA07B0BDE8F08300B9704739
:103050005C490978017001780C2901DD0C210170AF
:1030600000BFF4E700B595B057480089574A92F978
:1030700015201044544A32F8100000EB8000544AE6
:1030800032F81020514890F915301930C0561044CC
:103090004D4A32F8100000EB8000001D4C4A32F817
:1030A00010100EA801F08EFF47484088474A92F959
:1030B00016201044401C444A32F8100000EB8000F7
:1030C000434A32F81020414890F916301E30C0565D
:1030D00010443D4A32F8100000EB8000001D3C4ACD
:1030E00032F8101007A801F06DFF3748C088374A42
:1030F00092F918201044401C334A32F8100000EBBB
:103100008000334A32F81020304890F918302630C9
:10311000C05610442C4A32F8100000EB8000001D0D
:103120002B4A32F81010684601F04CFF0120274965
:103130008870042008700846407830B101281FD0FC
:1031400002281CD0032828D10CE01398032805D0AE
:103150001E48007D401C1D49087502E000201B49E7
:1031600008751AE00C98032805D01848007D401C0B
:103170001649087502E00020144908750DE00CE0BE
:103180000598032805D01148007D401C0F4908759B
:1031900002E000200D49087500BF00BF15B000BD5A
:1031A00000080240000402402C1600202A160020CD
:1031B000311600203216002036160020341600206A
:1031C000381600202B160020887A00080C230020D7
:1031D000C47D00080220FA498870704710B50320AA
:1031E000F74988704978481CC11700EB9171891024
:1031F000A0EB8101F24A5170002011460870087559
:1032000008460178EFA003F037FAED48017DEFA002
:1032100003F032FA0020EA490874C874487410BDFB
:1032200000B595B0EB480089E54A92F915201044A5
:10323000E84A32F8100000EB8000E74A32F810202C
:10324000DF4890F915301930C0561044E14A32F881
:10325000100000EB8000001DDF4A32F810100EA8AD
:1032600001F0B0FEDB484088D54A92F916201044A0
:10327000401CD84A32F8100000EB8000D64A32F8E1
:103280001020CF4890F916301E30C0561044D14A55
:1032900032F8100000EB8000001DCF4A32F8101009
:1032A00007A801F08FFECB48C088C54A92F91820C4
:1032B0001044401CC74A32F8100000EB8000C64A98
:1032C00032F81020BE4890F918302630C05610440D
:1032D000C04A32F8100000EB8000001DBE4A32F8F0
:1032E0001010684601F06EFE0420B549887008464B
:1032F0000078042809DA0978481CC11700EB91719D
:103300008910A0EB8101AE4A1170AD480078042805
:1033100032D1AB48007D01282EDDA9484078002835
:1033200078D1AC480089A64991F915100844A949FB
:1033300031F8100000EB8000A74931F81010A048C8
:1033400090F91520193080560844A24931F8100030
:1033500000EB8000801CA04931F8100042F20F7190
:1033600088420ADD9648007C401C052190FBF1F262
:1033700001FB120092490874FEE3964800899049C7
:1033800091F915100844934931F8100000EB8000C2
:10339000914931F810108A4890F91520193080565B
:1033A00008448C4931F8100000EB8000801C8A49E9
:1033B00031F81000B0F57A7F2DDB8648008980490E
:1033C00091F915100844834931F8100000EB800092
:1033D000814931F810107A4890F91520193080563B
:1033E00008447C4931F8100000EB8000801C7A49C9
:1033F00031F8100042F20F7188420CDC7049097CF0
:10340000481CC11700EB91718910A0EB81016C4A37
:103410001174B1E3E2E06F480089694991F9151030
:1034200008446C4931F8100000EB80006A4931F81B
:103430001010634890F915201930805608446549EA
:1034400031F8100000EB8000801C634931F8100057
:1034500063282ADD5F480089594991F9151008440D
:103460005C4931F8100000EB80005B4931F8101026
:10347000534890F91520193080560844554931F8C1
:10348000100000EB8000801C534931F81000B0F5AB
:103490007A7F0ADA4A48007C401C032190FBF1F253
:1034A00001FB12004649087466E34A480089444912
:1034B00091F915100844474931F8100000EB8000DD
:1034C000454931F810103E4890F9152019308056C2
:1034D0000844404931F8100000EB8000801C3E4950
:1034E00031F81000092829DD3A480089344991F95A
:1034F00015100844374931F8100000EB80003649B8
:1035000031F810102E4890F91520193080560844D3
:10351000304931F8100000EB8000801C2E4931F852
:10352000100063280ADC2649097C481C00EBD07196
:103530004910A0EB4101224A11741DE3254800897E
:103540001F4991F915100844224931F8100000EB89
:103550008000214931F81010194890F915201930D0
:10356000805608441B4931F8100000EB8000801C95
:10357000194931F81000002896DB164800891049D7
:1035800091F915100844134931F8100000EB800040
:10359000114931F810100A4890F915201930805659
:1035A00008440C4931F8100000EB8000801C0A49E7
:1035B00031F810000928C0DC002001490874DBE262
:1035C0000C230020796925640A0D000065722564CA
:1035D0000A0D0000887A0008C47D0008FE48407883
:1035E00003287BD1FD484088FB4991F91610084417
:1035F000401CFA4931F8100000EB8000F84931F81E
:103600001010F54890F916201E3080560844F349F2
:1036100031F8100000EB8000801CF14931F81000F7
:1036200042F20F7188420ADDEB48407C401C0521C4
:1036300090FBF1F201FB1200E74948749CE2E74875
:103640004088E54991F916100844401CE34931F8D7
:10365000100000EB8000E24931F81010DE4890F9CC
:1036600016201E3080560844DC4931F8100000EB6B
:103670008000801CDA4931F81000B0F57A7F2EDB2B
:10368000D6484088D44991F916100844401CD349C3
:1036900031F8100000EB8000D14931F81010CE480D
:1036A00090F916201E3080560844CC4931F810009D
:1036B00000EB8000801CCA4931F8100042F20F7103
:1036C00088420CDCC449497C481CC11700EB91714D
:1036D0008910A0EB8101C04A51744DE2DAE0BF4885
:1036E0004088BD4991F916100844401CBB4931F887
:1036F000100000EB8000BA4931F81010B64890F97C
:1037000016201E3080560844B44931F8100000EBF2
:103710008000801CB24931F8100063282BDDAF48CF
:103720004088AD4991F916100844401CAB4931F866
:10373000100000EB8000AA4931F81010A64890F95B
:1037400016201E3080560844A44931F8100000EBC2
:103750008000801CA24931F81000B0F57A7F0ADAA7
:103760009D48407C401C032190FBF1F201FB1200BC
:103770009949487400E299484088974991F9161090
:103780000844401C954931F8100000EB8000944932
:1037900031F81010904890F916201E3080560844D9
:1037A0008E4931F8100000EB8000801C8C4931F804
:1037B000100009282ADD89484088874991F91610A8
:1037C0000844401C854931F8100000EB8000844912
:1037D00031F81010804890F916201E3080560844A9
:1037E0007E4931F8100000EB8000801C7C4931F8E4
:1037F000100063280ADC7849497C481C00EBD07132
:103800004910A0EB4101744A5174B5E173484088F6
:10381000714991F916100844401C704931F81000A4
:1038200000EB80006E4931F810106B4890F91620BB
:103830001E3080560844694931F8100000EB8000C2
:10384000801C674931F81000002893DB63484088EA
:10385000614991F916100844401C604931F8100084
:1038600000EB80005E4931F810105B4890F916209B
:103870001E3080560844594931F8100000EB800092
:10388000801C574931F810000928BEDC002052493D
:10389000487471E15048407802280BD14E49897C28
:1038A000481CC11700EB91718910A0EB81014A4AB5
:1038B000917461E1484840780128A6D14748C08802
:1038C000454991F918100844401C444931F810004A
:1038D00000EB8000424931F810103F4890F9182061
:1038E0002630805608443D4931F8100000EB800036
:1038F000801C3B4931F8100042F20F7188420ADD0A
:103900003548C07C401C052190FBF1F201FB120000
:103910003149C87430E13148C0882F4991F91810F5
:103920000844401C2D4931F8100000EB80002C4960
:1039300031F81010284890F9182026308056084495
:10394000264931F8100000EB8000801C244931F832
:103950001000B0F57A7F2DDB2048C0881E4991F910
:1039600018100844401C1D4931F8100000EB80007D
:103970001B4931F81010184890F91820263080564D
:103980000844164931F8100000EB8000801C1449EF
:1039900031F8100042F20F7188420BDC0E49C97CED
:1039A000481CC11700EB91718910A0EB81010A4AF4
:1039B000D174E1E00948C088074991F9181008441A
:1039C000401C064931F8100000EB8000044931F832
:1039D0001010014806E000000C230020887A00083F
:1039E000C47D000890F91820263080560844FE490E
:1039F00031F8100000EB8000801CFC4931F8100009
:103A000063282BDDF848C088F94991F9181008445B
:103A1000401CF54931F8100000EB8000F34931F803
:103A20001010F34890F91820263080560844EE49CB
:103A300031F8100000EB8000801CEC4931F81000D8
:103A4000B0F57A7F0ADAEA48C07C401C032190FB7B
:103A5000F1F201FB1200E649C8748DE0E248C0882B
:103A6000E34991F918100844401CDF4931F810006F
:103A700000EB8000DD4931F81010DD4890F9182086
:103A8000263080560844D84931F8100000EB8000F9
:103A9000801CD64931F8100009282ADDD248C08898
:103AA000D34991F918100844401CCF4931F810004F
:103AB00000EB8000CD4931F81010CD4890F9182066
:103AC000263080560844C84931F8100000EB8000C9
:103AD000801CC64931F8100063280ADCC449C97C3F
:103AE000481C00EBD0714910A0EB4101C04AD174D1
:103AF00042E0BD48C088BE4991F918100844401CF6
:103B0000B94931F8100000EB8000B84931F81010C5
:103B1000B74890F91820263080560844B24931F849
:103B2000100000EB8000801CB04931F81000002824
:103B300022DBAD48C088AE4991F918100844401CFA
:103B4000A94931F8100000EB8000A84931F81010A5
:103B5000A74890F91820263080560844A24931F829
:103B6000100000EB8000801CA04931F810000928EB
:103B700002DC00209E49C87415B000BD05209C4998
:103B800088700846007801287BD10846407830B11B
:103B9000012861D0022848D0032821D121E094488F
:103BA000407D401C40B292494875084690F9150086
:103BB000012808DA8C4800898B4911F8100040B2BE
:103BC0008B4948750CE08A4890F9150086490989A7
:103BD000854A32F81110884202DD01208449487577
:103BE0005FE08348807D401C40B28149887508466B
:103BF00090F91600002809DC7B4840887A4911F8C2
:103C00001000401E40B27A4988750DE0784890F95E
:103C1000161075484088744A32F81000401E8142E0
:103C200002DD0020724988753BE07148C07D401C70
:103C300040B26F49C875084690F91700012802DAAA
:103C40000920C87507E06A4890F91700092802DDC5
:103C500001206749C87524E06548007E401C40B2D9
:103C600063490876084690F9180000280ADA5E4889
:103C7000C0885D4911F81000401E40B25C490876CA
:103C80000EE00FE05A4890F918105748C088564A7D
:103C900032F81000401E814202DD002054490876AF
:103CA00000BF00E25248007802287DD15048407899
:103CB00020B1012879D0032800D100E002E14C486E
:103CC00090F916101E30405C0A3041B2484890F915
:103CD00016201E3081541E3890F916101E304056A2
:103CE0000A2190FBF1F090FBF1F201FB1200002899
:103CF0002ADA3D4840883E4991F916100844401C94
:103D0000394931F8100000EB8000384931F81000D3
:103D1000354931F810000A2190FBF1F090FBF1F2E7
:103D200001FB1201324890F916201E3080560A22FB
:103D300090FBF2F302FB1300084441B22C4890F9C7
:103D400016201E30815438E0294890F916101E3094
:103D500040560A2190FBF1F090FBF1F201FB1201B9
:103D600021484088224A92F916201044401C1E4ADD
:103D700032F8100000EB80001C4A32F810001A4A9A
:103D800032F810000A2290FBF2F090FBF2F302FBF3
:103D90001300814211DD164890F916101E3040566E
:103DA0000A2190FBF1F201E08DE007E001FB120136
:103DB0000F4890F916201E30815483E00C4890F98A
:103DC00018102630405C0A3041B2094890F918209A
:103DD00026308154263890F91810263040560A2192
:103DE00090FBF1F006E00000887A0008C47D00082E
:103DF0000C23002090FBF1F201FB120000282ADACC
:103E0000FE48C088FE4991F918100844401CFB493F
:103E100031F8100000EB8000FA4931F81000F74942
:103E200031F810000A2190FBF1F090FBF1F201FB58
:103E30001201F34890F91820263080560A2290FB90
:103E4000F2F302FB1300084441B2ED4890F9182048
:103E50002630815435E0EA4890F918102630405653
:103E60000A2190FBF1F090FBF1F201FB1201E34813
:103E7000C088E34A92F918201044401CDF4A32F807
:103E8000100000EB8000DF4A32F81000DB4A32F805
:103E900010000A2290FBF2F090FBF2F302FB1300F9
:103EA00081420EDDD64890F91810263040560A217E
:103EB00090FBF1F201FB1201D14890F91820263055
:103EC000815400BF31E3CE48007803287DD1CC482F
:103ED000407820B1012879D0032849D149E0C84869
:103EE00090F915101930405C401C41B2C44890F95B
:103EF000152019308154193890F915101930405691
:103F0000012817DABD480089BD4991F91510084408
:103F1000BA4931F8100000EB8000BA4931F81000BE
:103F2000B64911F8100041B2B54890F91520193082
:103F300081541DE0B1480089B14991F91510084438
:103F4000AE4931F8100000EB8000AE4931F81000A6
:103F5000AA4931F81010AA4890F915201930805656
:103F6000814205DA0121A64890F9152019308154C3
:103F700099E0A34890F916101E30405C401C41B2F5
:103F80009F4890F916201E3081541E3890F9161063
:103F90001E30405601281ADA98484088984991F90D
:103FA00016100844401C954931F8100000EB8000C1
:103FB000944931F81000914911F8100041B290482D
:103FC00090F916201E30815420E06DE01FE08B48F0
:103FD00040888B4991F916100844401C874931F8F4
:103FE000100000EB8000874931F81000834931F858
:103FF0001010834890F916201E308056814205DA51
:1040000000217F4890F916201E3081544BE07C48F7
:1040100090F918102630405C401C41B2784890F965
:10402000182026308154263890F918102630405632
:10403000012818DA7148C088714991F918100844AC
:10404000401C6E4931F8100000EB80006D4931F8DA
:1040500010006A4911F8100041B2694890F918201F
:10406000263081541EE06548C088654991F91810D2
:104070000844401C614931F8100000EB80006149A0
:1040800031F810005D4931F810105D4890F91820A2
:1040900026308056814205DA0021594890F91820CF
:1040A0002630815400BF40E2554800780428FAD1F8
:1040B0005348007D0128F6DD5148407820B10128A1
:1040C00076D0032875D1BDE04D48007C042807D187
:1040D0004B48C06B42F2107108444949C86326E05E
:1040E0004748007C032806D14548C06B00F57A702C
:1040F0004349C8631BE04248007C022805D1404880
:10410000C06B64303E49C86311E03D48007C012823
:1041100005D13B48C06B0A303949C86307E03848CD
:10412000007C20B93648C06B401C3549C863334811
:104130000089334991F915100844304931F81000CD
:1041400000EB80002F4931F810102D4890F9152010
:10415000193080560844294931F8100000EB8000DE
:10416000801C284931F810002549C96B884221DAA2
:1041700022480089224991F9151008441F4931F855
:10418000100000EB80001F4931F810101C4890F916
:104190001520193080560844184931F8100000EBFA
:1041A0008000801C174931F810001549C86348E0A9
:1041B00001E1B9E111480089114991F9151008444C
:1041C0000E4931F8100000EB80000E4931F8101054
:1041D0000B4890F91520193080560844074931F8EA
:1041E000100000EB8000C01C064931F810000449A3
:1041F000C96B884225DD0148008905E0887A0008FE
:104200000C230020C47D0008FD4991F915100844D5
:10421000FC4931F8100000EB8000FB4931F8101028
:10422000F74890F91520193080560844F54931F8BF
:10423000100000EB8000C01CF34931F81000F04979
:10424000C86371E1EE48407C042807D1EC48006C5B
:1042500042F210710844EA49086426E0E848407CCC
:10426000032806D1E648006C00F57A70E44908643A
:104270001BE0E348407C022805D1E148006C643033
:10428000DF49086411E0DE48407C012805D1DC48A4
:10429000006C0A30DA49086407E0D948407C20B94C
:1042A000D748006C401CD6490864D6484088D44999
:1042B00091F916100844401CD24931F8100000EB67
:1042C0008000D14931F81010CD4890F916201E30E9
:1042D00080560844CB4931F8100000EB8000801C68
:1042E000C94931F81000C649096C884220DAC5482E
:1042F0004088C34991F916100844401CC14931F85F
:10430000100000EB8000C04931F81010BC4890F953
:1043100016201E3080560844BA4931F8100000EBD0
:104320008000801CB84931F81000B549086441E0AC
:10433000B4484088B24991F916100844401CB1496C
:1043400031F8100000EB8000AF4931F81010AC4894
:1043500090F916201E3080560844AA4931F8100002
:1043600000EB8000C01CA84931F81000A449096C7A
:1043700088421FDDA3484088A14991F916100844DE
:10438000401CA04931F8100000EB80009E4931F834
:1043900010109B4890F916201E3080560844994909
:1043A00031F8100000EB8000C01C974931F8100074
:1043B00093490864B8E09248C07C042807D190482B
:1043C000806C42F2107108448D49886426E08C4864
:1043D000C07C032806D18A48806C00F57A70884931
:1043E00088641BE08648C07C022805D18448806C24
:1043F00064308349886411E08148C07C012805D17C
:104400007F48806C0A307E49886407E07C48C07C25
:1044100020B97B48806C401C794988647948C08801
:10442000774991F918100844401C764931F810007A
:1044300000EB8000744931F81010714890F9182091
:104440002630805608446F4931F8100000EB800098
:10445000801C6D4931F810006949896C884220DA66
:104460006848C088664991F918100844401C65499D
:1044700031F8100000EB8000634931F810106048FB
:1044800090F918202630805608445E4931F8100013
:1044900000EB8000801C5C4931F8100058498864AA
:1044A00041E05848C088564991F918100844401C0A
:1044B000544931F8100000EB8000534931F81010D6
:1044C0004F4890F918202630805608444D4931F85D
:1044D000100000EB8000C01C4B4931F81000484927
:1044E000896C88421FDD4748C088454991F91810FA
:1044F0000844401C434931F8100000EB8000424959
:1045000031F810103E4890F91820263080560844A3
:104510003C4931F8100000EB8000C01C3A4931F8EA
:1045200010003749886400BF00BF70470620344937
:104530008870704707203249887008460078012843
:104540005DD10846407830B1012868D0022848D0B3
:10455000032821D121E02A48407D401E40B228494D
:104560004875084690F91500012808DA25480089A1
:10457000244911F8100040B2214948750CE0204848
:1045800090F915001F4909891E4A32F81110884216
:1045900002DD01201A49487565E01948807D401EFA
:1045A00040B217498875084690F91600002809DAC4
:1045B00014484088134911F81000401E40B21049B9
:1045C00088750DE00E4890F916100E4840880D4A87
:1045D00032F81000401E814202DD00200849887533
:1045E00041E00748C07D401E40B20549C8750846F5
:1045F00090F91700012809DA0920C8750EE033E0A8
:104600000C230020887A0008C47D0008FE4890F939
:104610001700092802DD0120FB49C87523E0FA488C
:10462000007E401E40B2F8490876084690F918000E
:10463000002809DAF548C088F44911F81000401E36
:1046400040B2F14908760DE0EF4890F91810EF48B4
:10465000C088EE4A32F81000401E814202DD002080
:10466000E949087600BFFCE3E748007802287DD1DD
:10467000E548407820B1012879D0032800D100E036
:10468000FAE0E14890F916101E30405C0A3841B259
:10469000DD4890F916201E3081541E3890F916100E
:1046A0001E3040560A2190FBF1F090FBF1F201FB25
:1046B000120000282ADAD5484088D34991F916100B
:1046C0000844401CD14931F8100000EB8000D0496B
:1046D00031F81000CD4931F810000A2190FBF1F0BB
:1046E00090FBF1F201FB1201C74890F916201E3031
:1046F00080560A2290FBF2F302FB1300084441B2F9
:10470000C14890F916201E30815438E0BE4890F917
:1047100016101E3040560A2190FBF1F090FBF1F28A
:1047200001FB1201B9484088B74A92F9162010449B
:10473000401CB64A32F8100000EB8000B44A32F850
:104740001000B24A32F810000A2290FBF2F090FBFF
:10475000F2F302FB1300814211DDAB4890F9161011
:104760001E3040560A2190FBF1F201E085E007E09F
:1047700001FB1201A44890F916201E3081547BE001
:10478000A14890F918102630405C0A3841B29E4882
:1047900090F9182026308154263890F918102630C8
:1047A00040560A2190FBF1F090FBF1F201FB120060
:1047B00000282ADA9548C088934991F918100844CE
:1047C000401C924931F8100000EB8000904931F80C
:1047D00010008E4931F810000A2190FBF1F090FB97
:1047E000F1F201FB1201884890F91820263080561A
:1047F0000A2290FBF2F302FB1300084441B2824804
:1048000090F918202630815435E07F4890F918102F
:10481000263040560A2190FBF1F090FBF1F201FBAB
:1048200012017A48C088784A92F918201044401C36
:10483000764A32F8100000EB8000754A32F810001A
:10484000724A32F810000A2290FBF2F090FBF2F369
:1048500002FB130081420EDD6B4890F918102630E0
:1048600040560A2190FBF1F201FB1201664890F9D3
:1048700018202630815400BF38E3634800780328AD
:104880007CD16148407820B1012878D0032849D1F3
:1048900049E05D4890F915101930405C401E41B266
:1048A000594890F9152019308154193890F915108C
:1048B00019304056012817DA54480089524991F9B5
:1048C00015100844514931F8100000EB80005049A0
:1048D00031F810004D4911F8100041B24A4890F9E2
:1048E0001520193081541DE048480089464991F946
:1048F00015100844454931F8100000EB8000444988
:1049000031F81000414931F810103F4890F9152056
:1049100019308056814205DA01213B4890F9152073
:10492000193081549FE0384890F916101E30405CD1
:10493000401E41B2344890F916201E3081541E3872
:1049400090F916101E304056012819DA2F48408879
:104950002D4991F9161008442C4931F8100000EB4C
:1049600080002B4931F81000284911F8100041B29D
:10497000254890F916201E30815420E074E01FE095
:1049800022484088204991F916100844401C1F49CC
:1049900031F8100000EB80001D4931F810001B4970
:1049A00031F81010184890F916201E3080568142B8
:1049B00005DA0021144890F916201E30815452E087
:1049C000114890F918102630405C401E41B20E4844
:1049D00090F9182026308154263890F91810263086
:1049E000405601281FDA0948C088074991F9181074
:1049F0000844064931F8100000EB8000044931F802
:104A00001000024906E000000C230020887A00080C
:104A1000C47D000811F8100041B2FE4890F918203A
:104A2000263081541EE0FC48C088FA4991F91810DC
:104A30000844401CF84931F8100000EB8000F749A9
:104A400031F81000F44931F81010F24890F91820AC
:104A500026308056814205DA0021EE4890F9182070
:104A60002630815400BF41E2EA4800780428FAD198
:104A7000E848007D0128F6DDE648407820B10128AD
:104A800076D0032875D1B6E0E248007C042807D12F
:104A9000E048C06BA0F51C501038DE49C86326E022
:104AA000DC48007C032806D1DA48C06BA0F57A7098
:104AB000D849C8631BE0D748007C022805D1D548F7
:104AC000C06B6438D349C86311E0D248007C012828
:104AD00005D1D048C06B0A38CE49C86307E0CD483D
:104AE000007C20B9CB48C06B401ECA49C863CA4885
:104AF0000089C84991F915100844C74931F81000D8
:104B000000EB8000C54931F81010C24890F915201B
:104B1000193080560844C04931F8100000EB80007D
:104B2000801CBE4931F81000BA49C96B884221DAAD
:104B3000B9480089B74991F915100844B64931F8C8
:104B4000100000EB8000B54931F81010B14890F921
:104B50001520193080560844AF4931F8100000EB99
:104B60008000801CAD4931F81000AA49C86341E0BB
:104B7000FAE0BAE1A8480089A64991F9151008445D
:104B8000A54931F8100000EB8000A44931F810105D
:104B9000A04890F915201930805608449E4931F8F4
:104BA000100000EB8000C01C9C4931F810009949AE
:104BB000C96B88421EDD98480089964991F9151005
:104BC0000844954931F8100000EB8000934931F812
:104BD0001010904890F915201930805608448E49DD
:104BE00031F8100000EB8000C01C8C4931F8100037
:104BF0008849C86379E18748407C042807D1854803
:104C0000006CA0F51C5010388249086426E08148E9
:104C1000407C032806D17F48006CA0F57A707D495E
:104C200008641BE07B48407C022805D17948006C71
:104C300064387849086411E07648407C012805D141
:104C40007448006C0A387349086407E07148407C76
:104C500020B97048006C401E6E4908646E48408858
:104C60006C4991F916100844401C6B4931F810004A
:104C700000EB8000694931F81010664890F9162061
:104C80001E3080560844644931F8100000EB800063
:104C9000801C624931F810005E49096C884220DAB4
:104CA0005D4840885B4991F916100844401C5A49F8
:104CB00031F8100000EB8000584931F810105548C9
:104CC00090F916201E3080560844534931F81000E0
:104CD00000EB8000801C514931F810004D490864F8
:104CE00041E04D4840884B4991F916100844401C5A
:104CF000494931F8100000EB8000484931F81010A4
:104D0000444890F916201E3080560844424931F834
:104D1000100000EB8000C01C404931F810003D49F4
:104D2000096C88421FDD3C4840883A4991F91610C9
:104D30000844401C384931F8100000EB8000374926
:104D400031F81010334890F916201E308056084470
:104D5000314931F8100000EB8000C01C2F4931F8B8
:104D600010002C490864C0E02A48C07C042807D100
:104D70002848806CA0F51C5010382649886426E02D
:104D80002448C07C032806D12248806CA0F57A70A4
:104D9000204988641BE01F48C07C022805D11D48BB
:104DA000806C64381B49886411E01A48C07C012873
:104DB00005D11848806C0A381649886407E0154800
:104DC000C07C20B91348806C401E12498864124888
:104DD000C088104991F918100844401C0E4931F858
:104DE000100000EB80000D4931F81010094890F9CF
:104DF0001820263080560844074931F8100000EB8F
:104E00008000801C054931F810000249896C8842F5
:104E100028DA05E00C230020887A0008C47D000809
:104E20005C48C0885C4991F918100844401C5949F5
:104E300031F8100000EB8000584931F81010564846
:104E400090F91820263080560844524931F8100055
:104E500000EB8000801C514931F810004E498864F5
:104E600042E043E04B48C0884B4991F91810084490
:104E7000401C484931F8100000EB8000474931F8E8
:104E80001010454890F918202630805608444149B2
:104E900031F8100000EB8000C01C404931F81000D0
:104EA0003D49896C88421FDD3A48C0883A4991F9EA
:104EB00018100844401C374931F8100000EB8000FE
:104EC000364931F81010344890F9182026308056B1
:104ED0000844304931F8100000EB8000C01C2F4915
:104EE00031F810002C49886400BF00BF70470820CB
:104EF00029498870704700B589B02948294920237D
:104F0000294ACDE90010002103A8FEF776F8152202
:104F100003A9264801F034FB254826490223264AE6
:104F2000CDE90010002103A8FEF767F8152203A9B8
:104F30001E48153001F024FBAFF60F201F49022355
:104F4000194ACDE90010002103A8FEF756F81522F2
:104F500003A916482A3001F013FBAFF26D00AFF63B
:104F60002B214FF40063144ACDE90010002103A85F
:104F7000FEF743F8152203A90C483F3001F000FB6F
:104F80000A480F49C1F801000846FEF75FF809B06A
:104F900000BD0000887A00080C230020C47D0008B2
:104FA000D531000865300008000802405823002071
:104FB00021320008DD310008000402407D3B00087A
:104FC0002C16002030B587B005460C46E00B00904B
:104FD000C4F341300190C4F304200290C4F3C01024
:104FE0000390C4F380100490C4F30110059004F002
:104FF0000F0006901C226946284601F0C1FA07B04E
:1050000030BD10B50446032C06D11023FEA20621A4
:105010002E20FDF70FFC21E0022C06D11023FDA26B
:1050200006212E20FDF706FC18E0012C06D11023E6
:10503000FAA206212E20FDF7FDFB0FE034B9102364
:10504000F9A206212E20FDF7F5FB07E0042C05D17F
:105050001023F8A206211E20FDF7ECFB10BD10B5B1
:10506000044694B91023EFA204213620FDF7E2FB99
:105070001023ECA204214620FDF7DCFB1023E9A25B
:1050800004215620FDF7D6FB3DE0012C12D1102360
:10509000E4A204213620FDF7CDFB1023E1A2042178
:1050A0004620FDF7C7FB1023E5A204215620FDF79B
:1050B000C1FB28E0022C12D11023DAA204213620F1
:1050C000FDF7B8FB1023DEA204214620FDF7B2FB5A
:1050D0001023D4A204215620FDF7ACFB13E0032CCF
:1050E00011D11023D6A204213620FDF7A3FB1023F3
:1050F000CCA204214620FDF79DFB1023C9A2042168
:105100005620FDF797FB10BDF8B504460D4642F258
:105110000F7085424EDD401C94FBF0F00A2190FB9D
:10512000F1F201FB12061020012332460421009007
:105130001E20FDF73DFB4FF47A7094FBF0F00A213E
:1051400090FBF1F201FB12061020012332460421EC
:1051500000902E20FDF72CFB642094FBF0F00A2138
:1051600090FBF1F201FB12061020012332460421CC
:1051700000903E20FDF71CFB0A2094FBF0F00A2172
:1051800090FBF1F201FB12061020012332460421AC
:1051900000904E20FDF70CFB0A2094FBF0F100FB81
:1051A0001146102001233246042100905E20FDF7B5
:1051B000FFFAE7E0B5F57A7F48DB42F20F708542EF
:1051C00044DC102397A204211E20FDF733FB4FF48B
:1051D0007A7094FBF0F00A2190FBF1F201FB1206C9
:1051E000102001233246042100902E20FDF7E0FA22
:1051F000642094FBF0F00A2190FBF1F201FB12060F
:10520000102001233246042100903E20FDF7D0FA01
:105210000A2094FBF0F00A2190FBF1F201FB120648
:10522000102001233246042100904E20FDF7C0FAE1
:105230000A2094FBF0F100FB1146102001233246B6
:10524000042100905E20FDF7B3FA9BE0632D3CDD66
:10525000B5F57A7F39DA102372A204211E20FDF7FA
:10526000E9FA10236FA204212E20FDF7E3FA64204F
:1052700094FBF0F00A2190FBF1F201FB12061020E2
:1052800001233246042100903E20FDF791FA0A20C6
:1052900094FBF0F00A2190FBF1F201FB12061020C2
:1052A00001233246042100904E20FDF781FA0A20A6
:1052B00094FBF0F100FB114610200123324604213B
:1052C00000905E20FDF774FA5CE0092D31DD632D5E
:1052D0002FDC102353A204211E20FDF7ABFA10236C
:1052E00050A204212E20FDF7A5FA10234DA204217F
:1052F0003E20FDF79FFA0A2094FBF0F00A2190FB74
:10530000F1F201FB12061020012332460421009025
:105310004E20FDF74DFA0A2094FBF0F100FB1146F8
:10532000102001233246042100905E20FDF740FA50
:1053300028E0002D26DB092D24DC102339A20421CE
:105340001E20FDF777FA102336A204212E20FDF748
:1053500071FA102333A204213E20FDF76BFA1023CB
:1053600030A204214E20FDF765FA0A2094FBF0F1EB
:1053700000FB1146102001233246042100905E20DC
:10538000FDF716FAF8BD70B504460D4634B9102382
:105390002CA204210E20FDF74DFA10E0012C0ED1B5
:1053A000002D06DB102327A204210E20FDF742FA70
:1053B00005E0102324A204210E20FDF73BFA70BD66
:1053C00030B597B0044621480089214A92F915204A
:1053D00010441E4A32F8100000EB80001D4A32F8DB
:1053E00010201B4890F915301930C0561044174A48
:1053F00032F8100000EB8000001D164A32F8101041
:1054000010A8FFF7DFFD27E02D20202020202020FE
:105410000000000020202D2020202000202020201F
:105420002D202020200000002020202020202D20C2
:10543000200000002D2020202020202020200000FF
:105440002E0000002B0000002D000000887A0008CC
:105450000C230020C47D0008FE484088FE4A92F9D3
:1054600016201044401CFB4A32F8100000EB80006C
:10547000FA4A32F81020F84890F916301E30C0561B
:105480001044F44A32F8100000EB8000001DF34A8B
:1054900032F8101009A8FFF795FDEE48C088EE4AD3
:1054A00092F918201044401CEA4A32F8100000EB30
:1054B0008000EA4A32F81020E74890F91830263088
:1054C000C0561044E34A32F8100000EB8000001D83
:1054D000E24A32F8101002A8FFF774FD2078042881
:1054E0006FDADD4890F91500012802DC0120DA4965
:1054F0004875D94890F91700012802DC0120D649E7
:10550000C875D54890F9151019304056012805DCAA
:105510000121D14890F9152019308154CE4890F9D5
:1055200016101E304056012805DC0121CA4890F9AA
:1055300016201E308154C84890F918102630405665
:10554000012805DC0121C44890F918202630815437
:105550006078A8BB1023C2A204211E20FDF76AF9BF
:105560001020009094F91520012304213E20FDF71E
:105570001FF994F9151004F1190040560A2190FB07
:10558000F1F090FBF1F201FB1205102001232A46F5
:10559000042100904E20FDF70BF994F9151004F149
:1055A000190040560A2190FBF1F201FB1205102070
:1055B00001232A46042100905E20FDF7F9F8A4E0BB
:1055C00000E0F0E06078032835D11023A6A2042182
:1055D0001E20FDF72FF91020009094F916200123CA
:1055E00004213E20FDF7E4F894F9161004F11E00A2
:1055F00040560A2190FBF1F090FBF1F201FB1205FD
:10560000102001232A46042100904E20FDF7D0F8F7
:1056100094F9161004F11E0040560A2190FBF1F295
:1056200001FB1205102001232A46042100905E2070
:10563000FDF7BEF869E06078022816D110238CA22D
:1056400004211E20FDF7F6F81020009094F9172091
:10565000012304213E20FDF7ABF81023AFF24822CE
:1056600004214E20FDF7E6F84FE0607801284CD188
:10567000102381A204211E20FDF7DCF894F9180004
:10568000092809DC1020009094F918200123042136
:105690003E20FDF78DF812E0207E0A2806D1102367
:1056A00077A204213E20FDF7C5F808E0207E0B28F4
:1056B00005D1102373A204213E20FDF7BBF894F915
:1056C000181004F1260040560A2190FBF1F090FBDF
:1056D000F1F201FB1205102001232A46042100905B
:1056E0004E20FDF765F894F9181004F12600405695
:1056F0000A2190FBF1F201FB1205102001232A463A
:10570000042100905E20FDF753F81023AFF2EC2245
:1057100004210E20FDF78EF80423AFF2DC22194697
:105720004620FDF787F81023AFF2083206211E202D
:10573000FDF780F8207838B91023AFF23432062113
:105740002E20FDF777F8D4E12078012807D1102327
:10575000AFF2403206212E20FDF76CF8C9E1207827
:1057600002280ED11023AFF24C3206212E20FDF775
:1057700061F80423AFF2383219464620FDF75AF893
:10578000B7E120780328DED11023AFF2643206217E
:105790002E20FDF74FF80423AFF25C321946462065
:1057A000FDF748F8A5E1207D012802D0207D0028E2
:1057B0004FD120780428FBD16078E8BB25480089C8
:1057C000254991F915100844224931F8100000EBE1
:1057D0008000224931F810101F4890F91520193027
:1057E000805608441B4931F8100000EB8000401C33
:1057F0001A4931F8100060606068E06361681398CE
:10580000FFF7C1FD134A1289134B93F915301A445F
:10581000104B33F8122002EB8202104B33F8123097
:105820000D4A92F91550193252571A44094B33F860
:10583000122002EB820200E026E0921C074B33F8B4
:1058400012106068FFF760FC1299C8B2FFF707FCFE
:10585000B5E0BBE0887A00080C230020C47D000876
:1058600020205020000000002020552000000000D3
:105870004F205020000000002020462000000000A3
:105880004100000050000000607803284AD19A4887
:1058900040889A4991F916100844401C964931F8FD
:1058A000100000EB8000964931F81010934890F9F1
:1058B00016201E30805608448F4931F8100000EB46
:1058C0008000401C8E4931F81000606060682064E0
:1058D00061680C98FFF757FD874A5288874B93F908
:1058E00016301A44521C844B33F8122002EB820209
:1058F000834B33F81230814A92F916501E325257B8
:105900001A447D4B33F8122002EB8202921C7C4B2E
:1059100033F812106068FFF7F7FB0B99C8B2FFF776
:105920009EFB4CE06078012849D17348C0887349D8
:1059300091F918100844401C6F4931F8100000EB31
:1059400080006F4931F810106C4890F9182026300B
:1059500080560844684931F8100000EB8000401C74
:10596000674931F8100060606068A064616805985C
:10597000FFF709FD604AD288604B93F918301A444A
:10598000521C5D4B33F8122002EB82025C4B33F861
:1059900012305A4A92F91850263252571A44564B2E
:1059A00033F8122002EB8202921C554B33F812108E
:1059B0006068FFF7A9FB0499C8B2FFF750FB1023FA
:1059C00050A206211E20FCF735FF92E0207D012821
:1059D0002FDD207804282CD1607858BBE16B139818
:1059E000FFF7D1FC444A1289444B93F915301A440D
:1059F000414B33F8122002EB8202414B33F8123054
:105A00003E4A92F91550193252571A443A4B33F81C
:105A1000122002EB8202921C394B33F81210E06B19
:105A2000FFF772FB1299C8B2FFF719FB207CFFF752
:105A3000E8FA5EE0607803282CD1216C0C98FFF71F
:105A4000A2FC2D4A52882D4B93F916301A44521C51
:105A5000294B33F8122002EB8202294B33F8123023
:105A6000264A92F916501E3252571A44224B33F8E6
:105A7000122002EB8202921C214B33F81210206C90
:105A8000FFF742FB0B99C8B2FFF7E9FA607CFFF71A
:105A9000B8FA2EE0607801282BD1A16C0598FFF7A9
:105AA00072FC154AD288154B93F918301A44521CCF
:105AB000114B33F8122002EB8202114B33F81230F3
:105AC0000E4A92F91850263252571A440A4B33F8AC
:105AD000122002EB8202921C094B33F81210A06CC8
